{
  "_format": "hh-sol-artifact-1",
  "contractName": "NFTMarketplace",
  "sourceName": "blockchain/contract/NFTMarketplace.sol",
  "abi": [
    {
      "inputs": [],
      "stateMutability": "nonpayable",
      "type": "constructor"
    },
    {
      "anonymous": false,
      "inputs": [
        {
          "indexed": true,
          "internalType": "address",
          "name": "owner",
          "type": "address"
        },
        {
          "indexed": true,
          "internalType": "address",
          "name": "approved",
          "type": "address"
        },
        {
          "indexed": true,
          "internalType": "uint256",
          "name": "tokenId",
          "type": "uint256"
        }
      ],
      "name": "Approval",
      "type": "event"
    },
    {
      "anonymous": false,
      "inputs": [
        {
          "indexed": true,
          "internalType": "address",
          "name": "owner",
          "type": "address"
        },
        {
          "indexed": true,
          "internalType": "address",
          "name": "operator",
          "type": "address"
        },
        {
          "indexed": false,
          "internalType": "bool",
          "name": "approved",
          "type": "bool"
        }
      ],
      "name": "ApprovalForAll",
      "type": "event"
    },
    {
      "anonymous": false,
      "inputs": [
        {
          "indexed": true,
          "internalType": "uint256",
          "name": "tokenId",
          "type": "uint256"
        },
        {
          "indexed": false,
          "internalType": "address",
          "name": "seller",
          "type": "address"
        },
        {
          "indexed": false,
          "internalType": "address",
          "name": "owner",
          "type": "address"
        },
        {
          "indexed": false,
          "internalType": "uint256",
          "name": "price",
          "type": "uint256"
        },
        {
          "indexed": false,
          "internalType": "bool",
          "name": "sold",
          "type": "bool"
        }
      ],
      "name": "MarketItemCreated",
      "type": "event"
    },
    {
      "anonymous": false,
      "inputs": [
        {
          "indexed": true,
          "internalType": "address",
          "name": "from",
          "type": "address"
        },
        {
          "indexed": true,
          "internalType": "address",
          "name": "to",
          "type": "address"
        },
        {
          "indexed": true,
          "internalType": "uint256",
          "name": "tokenId",
          "type": "uint256"
        }
      ],
      "name": "Transfer",
      "type": "event"
    },
    {
      "inputs": [
        {
          "internalType": "address",
          "name": "to",
          "type": "address"
        },
        {
          "internalType": "uint256",
          "name": "tokenId",
          "type": "uint256"
        }
      ],
      "name": "approve",
      "outputs": [],
      "stateMutability": "nonpayable",
      "type": "function"
    },
    {
      "inputs": [
        {
          "internalType": "address",
          "name": "owner",
          "type": "address"
        }
      ],
      "name": "balanceOf",
      "outputs": [
        {
          "internalType": "uint256",
          "name": "",
          "type": "uint256"
        }
      ],
      "stateMutability": "view",
      "type": "function"
    },
    {
      "inputs": [
        {
          "internalType": "uint256",
          "name": "tokenId",
          "type": "uint256"
        }
      ],
      "name": "createMarketSale",
      "outputs": [],
      "stateMutability": "payable",
      "type": "function"
    },
    {
      "inputs": [
        {
          "internalType": "string",
          "name": "tokenURI",
          "type": "string"
        },
        {
          "internalType": "uint256",
          "name": "price",
          "type": "uint256"
        }
      ],
      "name": "createToken",
      "outputs": [
        {
          "internalType": "uint256",
          "name": "",
          "type": "uint256"
        }
      ],
      "stateMutability": "payable",
      "type": "function"
    },
    {
      "inputs": [],
      "name": "fetchItemsListed",
      "outputs": [
        {
          "components": [
            {
              "internalType": "uint256",
              "name": "tokenId",
              "type": "uint256"
            },
            {
              "internalType": "address payable",
              "name": "seller",
              "type": "address"
            },
            {
              "internalType": "address payable",
              "name": "owner",
              "type": "address"
            },
            {
              "internalType": "uint256",
              "name": "price",
              "type": "uint256"
            },
            {
              "internalType": "bool",
              "name": "sold",
              "type": "bool"
            }
          ],
          "internalType": "struct NFTMarketplace.MarketItem[]",
          "name": "",
          "type": "tuple[]"
        }
      ],
      "stateMutability": "view",
      "type": "function"
    },
    {
      "inputs": [],
      "name": "fetchMarketItems",
      "outputs": [
        {
          "components": [
            {
              "internalType": "uint256",
              "name": "tokenId",
              "type": "uint256"
            },
            {
              "internalType": "address payable",
              "name": "seller",
              "type": "address"
            },
            {
              "internalType": "address payable",
              "name": "owner",
              "type": "address"
            },
            {
              "internalType": "uint256",
              "name": "price",
              "type": "uint256"
            },
            {
              "internalType": "bool",
              "name": "sold",
              "type": "bool"
            }
          ],
          "internalType": "struct NFTMarketplace.MarketItem[]",
          "name": "",
          "type": "tuple[]"
        }
      ],
      "stateMutability": "view",
      "type": "function"
    },
    {
      "inputs": [],
      "name": "fetchMyNfts",
      "outputs": [
        {
          "components": [
            {
              "internalType": "uint256",
              "name": "tokenId",
              "type": "uint256"
            },
            {
              "internalType": "address payable",
              "name": "seller",
              "type": "address"
            },
            {
              "internalType": "address payable",
              "name": "owner",
              "type": "address"
            },
            {
              "internalType": "uint256",
              "name": "price",
              "type": "uint256"
            },
            {
              "internalType": "bool",
              "name": "sold",
              "type": "bool"
            }
          ],
          "internalType": "struct NFTMarketplace.MarketItem[]",
          "name": "",
          "type": "tuple[]"
        }
      ],
      "stateMutability": "view",
      "type": "function"
    },
    {
      "inputs": [
        {
          "internalType": "uint256",
          "name": "tokenId",
          "type": "uint256"
        }
      ],
      "name": "getApproved",
      "outputs": [
        {
          "internalType": "address",
          "name": "",
          "type": "address"
        }
      ],
      "stateMutability": "view",
      "type": "function"
    },
    {
      "inputs": [],
      "name": "getListingPrice",
      "outputs": [
        {
          "internalType": "uint256",
          "name": "",
          "type": "uint256"
        }
      ],
      "stateMutability": "view",
      "type": "function"
    },
    {
      "inputs": [
        {
          "internalType": "address",
          "name": "owner",
          "type": "address"
        },
        {
          "internalType": "address",
          "name": "operator",
          "type": "address"
        }
      ],
      "name": "isApprovedForAll",
      "outputs": [
        {
          "internalType": "bool",
          "name": "",
          "type": "bool"
        }
      ],
      "stateMutability": "view",
      "type": "function"
    },
    {
      "inputs": [],
      "name": "name",
      "outputs": [
        {
          "internalType": "string",
          "name": "",
          "type": "string"
        }
      ],
      "stateMutability": "view",
      "type": "function"
    },
    {
      "inputs": [
        {
          "internalType": "uint256",
          "name": "tokenId",
          "type": "uint256"
        }
      ],
      "name": "ownerOf",
      "outputs": [
        {
          "internalType": "address",
          "name": "",
          "type": "address"
        }
      ],
      "stateMutability": "view",
      "type": "function"
    },
    {
      "inputs": [
        {
          "internalType": "uint256",
          "name": "tokenId",
          "type": "uint256"
        },
        {
          "internalType": "uint256",
          "name": "price",
          "type": "uint256"
        }
      ],
      "name": "resellToken",
      "outputs": [],
      "stateMutability": "payable",
      "type": "function"
    },
    {
      "inputs": [
        {
          "internalType": "address",
          "name": "from",
          "type": "address"
        },
        {
          "internalType": "address",
          "name": "to",
          "type": "address"
        },
        {
          "internalType": "uint256",
          "name": "tokenId",
          "type": "uint256"
        }
      ],
      "name": "safeTransferFrom",
      "outputs": [],
      "stateMutability": "nonpayable",
      "type": "function"
    },
    {
      "inputs": [
        {
          "internalType": "address",
          "name": "from",
          "type": "address"
        },
        {
          "internalType": "address",
          "name": "to",
          "type": "address"
        },
        {
          "internalType": "uint256",
          "name": "tokenId",
          "type": "uint256"
        },
        {
          "internalType": "bytes",
          "name": "data",
          "type": "bytes"
        }
      ],
      "name": "safeTransferFrom",
      "outputs": [],
      "stateMutability": "nonpayable",
      "type": "function"
    },
    {
      "inputs": [
        {
          "internalType": "address",
          "name": "operator",
          "type": "address"
        },
        {
          "internalType": "bool",
          "name": "approved",
          "type": "bool"
        }
      ],
      "name": "setApprovalForAll",
      "outputs": [],
      "stateMutability": "nonpayable",
      "type": "function"
    },
    {
      "inputs": [
        {
          "internalType": "bytes4",
          "name": "interfaceId",
          "type": "bytes4"
        }
      ],
      "name": "supportsInterface",
      "outputs": [
        {
          "internalType": "bool",
          "name": "",
          "type": "bool"
        }
      ],
      "stateMutability": "view",
      "type": "function"
    },
    {
      "inputs": [],
      "name": "symbol",
      "outputs": [
        {
          "internalType": "string",
          "name": "",
          "type": "string"
        }
      ],
      "stateMutability": "view",
      "type": "function"
    },
    {
      "inputs": [
        {
          "internalType": "uint256",
          "name": "tokenId",
          "type": "uint256"
        }
      ],
      "name": "tokenURI",
      "outputs": [
        {
          "internalType": "string",
          "name": "",
          "type": "string"
        }
      ],
      "stateMutability": "view",
      "type": "function"
    },
    {
      "inputs": [
        {
          "internalType": "address",
          "name": "from",
          "type": "address"
        },
        {
          "internalType": "address",
          "name": "to",
          "type": "address"
        },
        {
          "internalType": "uint256",
          "name": "tokenId",
          "type": "uint256"
        }
      ],
      "name": "transferFrom",
      "outputs": [],
      "stateMutability": "nonpayable",
      "type": "function"
    },
    {
      "inputs": [
        {
          "internalType": "uint256",
          "name": "_listingPrice",
          "type": "uint256"
        }
      ],
      "name": "updateListingPrice",
      "outputs": [],
      "stateMutability": "payable",
      "type": "function"
    }
  ],
  "bytecode": "0x608060405265e35fa931a0006009553480156200001b57600080fd5b506040518060400160405280600a8152602001694e465420546f6b656e7360b01b8152506040518060400160405280600381526020016213951560ea1b81525081600090816200006c91906200013b565b5060016200007b82826200013b565b5050600a80546001600160a01b031916331790555062000207565b634e487b7160e01b600052604160045260246000fd5b600181811c90821680620000c157607f821691505b602082108103620000e257634e487b7160e01b600052602260045260246000fd5b50919050565b601f8211156200013657600081815260208120601f850160051c81016020861015620001115750805b601f850160051c820191505b8181101562000132578281556001016200011d565b5050505b505050565b81516001600160401b0381111562000157576200015762000096565b6200016f81620001688454620000ac565b84620000e8565b602080601f831160018114620001a757600084156200018e5750858301515b600019600386901b1c1916600185901b17855562000132565b600085815260208120601f198616915b82811015620001d857888601518255948401946001909101908401620001b7565b5085821015620001f75787850151600019600388901b60f8161c191681555b5050505050600190811b01905550565b61256380620002176000396000f3fe60806040526004361061016a5760003560e01c80636352211e116100cb578063ae677aa31161007f578063c87b56dd11610059578063c87b56dd14610399578063e219fc75146103b9578063e985e9c5146103cc57600080fd5b8063ae677aa314610353578063b88d4fde14610366578063be9af5361461038657600080fd5b806372b3b620116100b057806372b3b6201461030b57806395d89b411461031e578063a22cb4651461033357600080fd5b80636352211e146102cb57806370a08231146102eb57600080fd5b8063128ae7121161012257806323b872dd1161010757806323b872dd1461027657806342842e0e1461029657806345f8fa80146102b657600080fd5b8063128ae7121461024257806312e855851461025757600080fd5b8063081812fc11610153578063081812fc146101c6578063095ea7b3146101fe5780630f08efe01461022057600080fd5b806301ffc9a71461016f57806306fdde03146101a4575b600080fd5b34801561017b57600080fd5b5061018f61018a366004611f4e565b610415565b60405190151581526020015b60405180910390f35b3480156101b057600080fd5b506101b96104b2565b60405161019b9190611fbb565b3480156101d257600080fd5b506101e66101e1366004611fce565b610544565b6040516001600160a01b03909116815260200161019b565b34801561020a57600080fd5b5061021e610219366004612003565b61056b565b005b34801561022c57600080fd5b506102356106a1565b60405161019b919061202d565b34801561024e57600080fd5b50610235610838565b34801561026357600080fd5b506009545b60405190815260200161019b565b34801561028257600080fd5b5061021e6102913660046120a9565b610a0c565b3480156102a257600080fd5b5061021e6102b13660046120a9565b610a83565b3480156102c257600080fd5b50610235610a9e565b3480156102d757600080fd5b506101e66102e6366004611fce565b610c72565b3480156102f757600080fd5b506102686103063660046120e5565b610cd7565b61026861031936600461218c565b610d71565b34801561032a57600080fd5b506101b9610db3565b34801561033f57600080fd5b5061021e61034e3660046121e5565b610dc2565b61021e610361366004611fce565b610dd1565b34801561037257600080fd5b5061021e610381366004612221565b610e56565b61021e610394366004611fce565b610ed4565b3480156103a557600080fd5b506101b96103b4366004611fce565b611039565b61021e6103c736600461229d565b611149565b3480156103d857600080fd5b5061018f6103e73660046122bf565b6001600160a01b03918216600090815260056020908152604080832093909416825291909152205460ff1690565b60006001600160e01b031982167f80ac58cd00000000000000000000000000000000000000000000000000000000148061047857506001600160e01b031982167f5b5e139f00000000000000000000000000000000000000000000000000000000145b806104ac57507f01ffc9a7000000000000000000000000000000000000000000000000000000006001600160e01b03198316145b92915050565b6060600080546104c1906122f2565b80601f01602080910402602001604051908101604052809291908181526020018280546104ed906122f2565b801561053a5780601f1061050f5761010080835404028352916020019161053a565b820191906000526020600020905b81548152906001019060200180831161051d57829003601f168201915b5050505050905090565b600061054f82611290565b506000908152600460205260409020546001600160a01b031690565b600061057682610c72565b9050806001600160a01b0316836001600160a01b0316036106045760405162461bcd60e51b815260206004820152602160248201527f4552433732313a20617070726f76616c20746f2063757272656e74206f776e6560448201527f720000000000000000000000000000000000000000000000000000000000000060648201526084015b60405180910390fd5b336001600160a01b0382161480610620575061062081336103e7565b6106925760405162461bcd60e51b815260206004820152603d60248201527f4552433732313a20617070726f76652063616c6c6572206973206e6f7420746f60448201527f6b656e206f776e6572206f7220617070726f76656420666f7220616c6c00000060648201526084016105fb565b61069c83836112f7565b505050565b606060006106ae60075490565b905060006106bb60085490565b6007546106c89190612342565b90506000808267ffffffffffffffff8111156106e6576106e6612100565b60405190808252806020026020018201604052801561073f57816020015b6040805160a0810182526000808252602080830182905292820181905260608201819052608082015282526000199092019101816107045790505b50905060005b8481101561082f5730600b600061075d846001612355565b81526020810191909152604001600020600201546001600160a01b03160361081d57600061078c826001612355565b6000818152600b6020908152604091829020825160a0810184528154815260018201546001600160a01b039081169382019390935260028201549092169282019290925260038201546060820152600482015460ff16151560808201528551929350909185908790811061080257610802612368565b6020908102919091010152610818600186612355565b945050505b806108278161237e565b915050610745565b50949350505050565b6060600061084560075490565b905060008060005b838110156108a75733600b6000610865846001612355565b81526020810191909152604001600020600201546001600160a01b03160361089557610892600184612355565b92505b8061089f8161237e565b91505061084d565b5060008267ffffffffffffffff8111156108c3576108c3612100565b60405190808252806020026020018201604052801561091c57816020015b6040805160a0810182526000808252602080830182905292820181905260608201819052608082015282526000199092019101816108e15790505b50905060005b8481101561082f5733600b600061093a846001612355565b81526020810191909152604001600020600201546001600160a01b0316036109fa576000610969826001612355565b6000818152600b6020908152604091829020825160a0810184528154815260018201546001600160a01b039081169382019390935260028201549092169282019290925260038201546060820152600482015460ff1615156080820152855192935090918590879081106109df576109df612368565b60209081029190910101526109f5600186612355565b945050505b80610a048161237e565b915050610922565b610a163382611365565b610a785760405162461bcd60e51b815260206004820152602d60248201527f4552433732313a2063616c6c6572206973206e6f7420746f6b656e206f776e6560448201526c1c881bdc88185c1c1c9bdd9959609a1b60648201526084016105fb565b61069c8383836113e3565b61069c83838360405180602001604052806000815250610e56565b60606000610aab60075490565b905060008060005b83811015610b0d5733600b6000610acb846001612355565b81526020810191909152604001600020600101546001600160a01b031603610afb57610af8600184612355565b92505b80610b058161237e565b915050610ab3565b5060008267ffffffffffffffff811115610b2957610b29612100565b604051908082528060200260200182016040528015610b8257816020015b6040805160a081018252600080825260208083018290529282018190526060820181905260808201528252600019909201910181610b475790505b50905060005b8481101561082f5733600b6000610ba0846001612355565b81526020810191909152604001600020600101546001600160a01b031603610c60576000610bcf826001612355565b6000818152600b6020908152604091829020825160a0810184528154815260018201546001600160a01b039081169382019390935260028201549092169282019290925260038201546060820152600482015460ff161515608082015285519293509091859087908110610c4557610c45612368565b6020908102919091010152610c5b600186612355565b945050505b80610c6a8161237e565b915050610b88565b6000818152600260205260408120546001600160a01b0316806104ac5760405162461bcd60e51b815260206004820152601860248201527f4552433732313a20696e76616c696420746f6b656e204944000000000000000060448201526064016105fb565b60006001600160a01b038216610d555760405162461bcd60e51b815260206004820152602960248201527f4552433732313a2061646472657373207a65726f206973206e6f74206120766160448201527f6c6964206f776e6572000000000000000000000000000000000000000000000060648201526084016105fb565b506001600160a01b031660009081526003602052604090205490565b6000610d81600780546001019055565b6000610d8c60075490565b9050610d9833826115e9565b610da28185611782565b610dac8184611824565b9392505050565b6060600180546104c1906122f2565b610dcd3383836119b6565b5050565b600a546001600160a01b03163314610e515760405162461bcd60e51b815260206004820152603060248201527f4f6e6c79206d61726b6574706c616365206f776e65722063616e20757064617460448201527f65206c697374696e672070726963652e0000000000000000000000000000000060648201526084016105fb565b600955565b610e603383611365565b610ec25760405162461bcd60e51b815260206004820152602d60248201527f4552433732313a2063616c6c6572206973206e6f7420746f6b656e206f776e6560448201526c1c881bdc88185c1c1c9bdd9959609a1b60648201526084016105fb565b610ece84848484611a84565b50505050565b6000818152600b6020526040902060038101546001909101546001600160a01b0316348214610f6d576040805162461bcd60e51b81526020600482015260248101919091527f506c65617365207375626d6974207468652061736b696e67207072696365206960448201527f6e206f7264657220746f20636f6d706c6574652074686520707572636861736560648201526084016105fb565b6000838152600b602052604090206002810180546001600160a01b0319908116331790915560048201805460ff1916600190811790915590910180549091169055610fbc600880546001019055565b610fc73033856113e3565b600a546009546040516001600160a01b039092169181156108fc0291906000818181858888f19350505050158015611003573d6000803e3d6000fd5b506040516001600160a01b038216903480156108fc02916000818181858888f19350505050158015610ece573d6000803e3d6000fd5b606061104482611290565b6000828152600660205260408120805461105d906122f2565b80601f0160208091040260200160405190810160405280929190818152602001828054611089906122f2565b80156110d65780601f106110ab576101008083540402835291602001916110d6565b820191906000526020600020905b8154815290600101906020018083116110b957829003601f168201915b5050505050905060006110f460408051602081019091526000815290565b90508051600003611106575092915050565b815115611138578082604051602001611120929190612397565b60405160208183030381529060405292505050919050565b61114184611b0d565b949350505050565b6000828152600b60205260409020600201546001600160a01b031633146111d85760405162461bcd60e51b815260206004820152602a60248201527f4f6e6c79206974656d206f776e65722063616e20706572666f726d207468697360448201527f206f7065726174696f6e0000000000000000000000000000000000000000000060648201526084016105fb565b60095434146112355760405162461bcd60e51b8152602060048201526024808201527f5072696365206d75737420626520657175616c20746f206c697374696e6720706044820152637269636560e01b60648201526084016105fb565b6000828152600b6020526040902060048101805460ff19169055600381018290556001810180546001600160a01b0319908116331790915560029091018054909116301790556112856008611b80565b610dcd3330846113e3565b6000818152600260205260409020546001600160a01b03166112f45760405162461bcd60e51b815260206004820152601860248201527f4552433732313a20696e76616c696420746f6b656e204944000000000000000060448201526064016105fb565b50565b600081815260046020526040902080546001600160a01b0319166001600160a01b038416908117909155819061132c82610c72565b6001600160a01b03167f8c5be1e5ebec7d5bd14f71427d1e84f3dd0314c0f7b2291e5b200ac8c7c3b92560405160405180910390a45050565b60008061137183610c72565b9050806001600160a01b0316846001600160a01b031614806113b857506001600160a01b0380821660009081526005602090815260408083209388168352929052205460ff165b806111415750836001600160a01b03166113d184610544565b6001600160a01b031614949350505050565b826001600160a01b03166113f682610c72565b6001600160a01b03161461145a5760405162461bcd60e51b815260206004820152602560248201527f4552433732313a207472616e736665722066726f6d20696e636f72726563742060448201526437bbb732b960d91b60648201526084016105fb565b6001600160a01b0382166114d55760405162461bcd60e51b8152602060048201526024808201527f4552433732313a207472616e7366657220746f20746865207a65726f2061646460448201527f726573730000000000000000000000000000000000000000000000000000000060648201526084016105fb565b6114e28383836001611bd7565b826001600160a01b03166114f582610c72565b6001600160a01b0316146115595760405162461bcd60e51b815260206004820152602560248201527f4552433732313a207472616e736665722066726f6d20696e636f72726563742060448201526437bbb732b960d91b60648201526084016105fb565b600081815260046020908152604080832080546001600160a01b03199081169091556001600160a01b0387811680865260038552838620805460001901905590871680865283862080546001019055868652600290945282852080549092168417909155905184937fddf252ad1be2c89b69c2b068fc378daa952ba7f163c4a11628f55a4df523b3ef91a4505050565b6001600160a01b03821661163f5760405162461bcd60e51b815260206004820181905260248201527f4552433732313a206d696e7420746f20746865207a65726f206164647265737360448201526064016105fb565b6000818152600260205260409020546001600160a01b0316156116a45760405162461bcd60e51b815260206004820152601c60248201527f4552433732313a20746f6b656e20616c7265616479206d696e7465640000000060448201526064016105fb565b6116b2600083836001611bd7565b6000818152600260205260409020546001600160a01b0316156117175760405162461bcd60e51b815260206004820152601c60248201527f4552433732313a20746f6b656e20616c7265616479206d696e7465640000000060448201526064016105fb565b6001600160a01b038216600081815260036020908152604080832080546001019055848352600290915280822080546001600160a01b0319168417905551839291907fddf252ad1be2c89b69c2b068fc378daa952ba7f163c4a11628f55a4df523b3ef908290a45050565b6000828152600260205260409020546001600160a01b031661180c5760405162461bcd60e51b815260206004820152602e60248201527f45524337323155524953746f726167653a2055524920736574206f66206e6f6e60448201527f6578697374656e7420746f6b656e00000000000000000000000000000000000060648201526084016105fb565b600082815260066020526040902061069c8282612414565b600081116118745760405162461bcd60e51b815260206004820152601c60248201527f5072696365206d757374206265206174206c656173742031207765690000000060448201526064016105fb565b60095434146118d15760405162461bcd60e51b8152602060048201526024808201527f5072696365206d75737420626520657175616c20746f206c697374696e6720706044820152637269636560e01b60648201526084016105fb565b6040805160a08101825283815233602080830182815230848601818152606086018881526000608088018181528b8252600b909652979097209551865591516001860180546001600160a01b03199081166001600160a01b0393841617909155925160028701805490941691161790915593516003840155516004909201805460ff19169215159290921790915561196991846113e3565b604080513381523060208201529081018290526000606082015282907fb640004f1d14576d0c209e240cad0410e0d8c0c33a09375861fbadae2588a98d9060800160405180910390a25050565b816001600160a01b0316836001600160a01b031603611a175760405162461bcd60e51b815260206004820152601960248201527f4552433732313a20617070726f766520746f2063616c6c65720000000000000060448201526064016105fb565b6001600160a01b03838116600081815260056020908152604080832094871680845294825291829020805460ff191686151590811790915591519182527f17307eab39ab6107e8899845ad3d59bd9653f200f220920489ca2b5937696c31910160405180910390a3505050565b611a8f8484846113e3565b611a9b84848484611c5f565b610ece5760405162461bcd60e51b815260206004820152603260248201527f4552433732313a207472616e7366657220746f206e6f6e20455243373231526560448201527f63656976657220696d706c656d656e746572000000000000000000000000000060648201526084016105fb565b6060611b1882611290565b6000611b2f60408051602081019091526000815290565b90506000815111611b4f5760405180602001604052806000815250610dac565b80611b5984611db6565b604051602001611b6a929190612397565b6040516020818303038152906040529392505050565b805480611bcf5760405162461bcd60e51b815260206004820152601b60248201527f436f756e7465723a2064656372656d656e74206f766572666c6f77000000000060448201526064016105fb565b600019019055565b6001811115610ece576001600160a01b03841615611c1d576001600160a01b03841660009081526003602052604081208054839290611c17908490612342565b90915550505b6001600160a01b03831615610ece576001600160a01b03831660009081526003602052604081208054839290611c54908490612355565b909155505050505050565b60006001600160a01b0384163b15611dab57604051630a85bd0160e11b81526001600160a01b0385169063150b7a0290611ca39033908990889088906004016124d4565b6020604051808303816000875af1925050508015611cde575060408051601f3d908101601f19168201909252611cdb91810190612510565b60015b611d91573d808015611d0c576040519150601f19603f3d011682016040523d82523d6000602084013e611d11565b606091505b508051600003611d895760405162461bcd60e51b815260206004820152603260248201527f4552433732313a207472616e7366657220746f206e6f6e20455243373231526560448201527f63656976657220696d706c656d656e746572000000000000000000000000000060648201526084016105fb565b805181602001fd5b6001600160e01b031916630a85bd0160e11b149050611141565b506001949350505050565b60606000611dc383611e56565b600101905060008167ffffffffffffffff811115611de357611de3612100565b6040519080825280601f01601f191660200182016040528015611e0d576020820181803683370190505b5090508181016020015b600019017f3031323334353637383961626364656600000000000000000000000000000000600a86061a8153600a8504945084611e1757509392505050565b6000807a184f03e93ff9f4daa797ed6e38ed64bf6a1f0100000000000000008310611e9f577a184f03e93ff9f4daa797ed6e38ed64bf6a1f010000000000000000830492506040015b6d04ee2d6d415b85acef81000000008310611ecb576d04ee2d6d415b85acef8100000000830492506020015b662386f26fc100008310611ee957662386f26fc10000830492506010015b6305f5e1008310611f01576305f5e100830492506008015b6127108310611f1557612710830492506004015b60648310611f27576064830492506002015b600a83106104ac5760010192915050565b6001600160e01b0319811681146112f457600080fd5b600060208284031215611f6057600080fd5b8135610dac81611f38565b60005b83811015611f86578181015183820152602001611f6e565b50506000910152565b60008151808452611fa7816020860160208601611f6b565b601f01601f19169290920160200192915050565b602081526000610dac6020830184611f8f565b600060208284031215611fe057600080fd5b5035919050565b80356001600160a01b0381168114611ffe57600080fd5b919050565b6000806040838503121561201657600080fd5b61201f83611fe7565b946020939093013593505050565b602080825282518282018190526000919060409081850190868401855b8281101561209c57815180518552868101516001600160a01b03908116888701528682015116868601526060808201519086015260809081015115159085015260a0909301929085019060010161204a565b5091979650505050505050565b6000806000606084860312156120be57600080fd5b6120c784611fe7565b92506120d560208501611fe7565b9150604084013590509250925092565b6000602082840312156120f757600080fd5b610dac82611fe7565b634e487b7160e01b600052604160045260246000fd5b600067ffffffffffffffff8084111561213157612131612100565b604051601f8501601f19908116603f0116810190828211818310171561215957612159612100565b8160405280935085815286868601111561217257600080fd5b858560208301376000602087830101525050509392505050565b6000806040838503121561219f57600080fd5b823567ffffffffffffffff8111156121b657600080fd5b8301601f810185136121c757600080fd5b6121d685823560208401612116565b95602094909401359450505050565b600080604083850312156121f857600080fd5b61220183611fe7565b91506020830135801515811461221657600080fd5b809150509250929050565b6000806000806080858703121561223757600080fd5b61224085611fe7565b935061224e60208601611fe7565b925060408501359150606085013567ffffffffffffffff81111561227157600080fd5b8501601f8101871361228257600080fd5b61229187823560208401612116565b91505092959194509250565b600080604083850312156122b057600080fd5b50508035926020909101359150565b600080604083850312156122d257600080fd5b6122db83611fe7565b91506122e960208401611fe7565b90509250929050565b600181811c9082168061230657607f821691505b60208210810361232657634e487b7160e01b600052602260045260246000fd5b50919050565b634e487b7160e01b600052601160045260246000fd5b818103818111156104ac576104ac61232c565b808201808211156104ac576104ac61232c565b634e487b7160e01b600052603260045260246000fd5b6000600182016123905761239061232c565b5060010190565b600083516123a9818460208801611f6b565b8351908301906123bd818360208801611f6b565b01949350505050565b601f82111561069c57600081815260208120601f850160051c810160208610156123ed5750805b601f850160051c820191505b8181101561240c578281556001016123f9565b505050505050565b815167ffffffffffffffff81111561242e5761242e612100565b6124428161243c84546122f2565b846123c6565b602080601f831160018114612477576000841561245f5750858301515b600019600386901b1c1916600185901b17855561240c565b600085815260208120601f198616915b828110156124a657888601518255948401946001909101908401612487565b50858210156124c45787850151600019600388901b60f8161c191681555b5050505050600190811b01905550565b60006001600160a01b038087168352808616602084015250836040830152608060608301526125066080830184611f8f565b9695505050505050565b60006020828403121561252257600080fd5b8151610dac81611f3856fea2646970667358221220aeeb0fae0acb76393c70f4973239a093c8534b2bc87e277c3659591c4ddd92d064736f6c63430008110033",
  "linkReferences": {},
  "deployedLinkReferences": {}
}