{
    "contractName": "vendingMachine",
    "abi": [
        {
            "inputs": [],
            "stateMutability": "nonpayable",
            "type": "constructor"
        },
        {
            "inputs": [
                {
                    "internalType": "uint256",
                    "name": "amount",
                    "type": "uint256"
                }
            ],
            "name": "addStock",
            "outputs": [],
            "stateMutability": "nonpayable",
            "type": "function"
        },
        {
            "inputs": [
                {
                    "internalType": "address",
                    "name": "",
                    "type": "address"
                }
            ],
            "name": "donutBalances",
            "outputs": [
                {
                    "internalType": "uint256",
                    "name": "",
                    "type": "uint256"
                }
            ],
            "stateMutability": "view",
            "type": "function"
        },
        {
            "inputs": [],
            "name": "getVendingMachineBalacnce",
            "outputs": [
                {
                    "internalType": "uint256",
                    "name": "",
                    "type": "uint256"
                }
            ],
            "stateMutability": "view",
            "type": "function"
        },
        {
            "inputs": [],
            "name": "owner",
            "outputs": [
                {
                    "internalType": "address",
                    "name": "",
                    "type": "address"
                }
            ],
            "stateMutability": "view",
            "type": "function"
        },
        {
            "inputs": [
                {
                    "internalType": "uint256",
                    "name": "amount",
                    "type": "uint256"
                }
            ],
            "name": "purchaseDonut",
            "outputs": [],
            "stateMutability": "payable",
            "type": "function"
        }
    ],
    "bytecode": "608060405234801561001057600080fd5b50600080546001600160a01b031916331781553081526001602052604090206064905561038a806100426000396000f3fe60806040526004361061004a5760003560e01c80633d6506261461004f5780637059312a146100715780638da5cb5b146100845780639a020d8a146100c1578063fa55d080146100fc575b600080fd5b34801561005b57600080fd5b5061006f61006a3660046102b2565b61011e565b005b61006f61007f3660046102b2565b6101a4565b34801561009057600080fd5b506000546100a4906001600160a01b031681565b6040516001600160a01b0390911681526020015b60405180910390f35b3480156100cd57600080fd5b506100ee6100dc3660046102cb565b60016020526000908152604090205481565b6040519081526020016100b8565b34801561010857600080fd5b50306000908152600160205260409020546100ee565b6000546001600160a01b0316331461017d5760405162461bcd60e51b815260206004820152601860248201527f6f6e6c79206f776e65722063616e206164642073746f636b000000000000000060448201526064015b60405180910390fd5b306000908152600160205260408120805483929061019c908490610311565b909155505050565b306000908152600160205260409020548111156102035760405162461bcd60e51b815260206004820152601c60248201527f6e6f7420656e6f75676820646f6e757420746f207075726368617365000000006044820152606401610174565b61021581671bc16d674ec8000061032a565b34101561026f5760405162461bcd60e51b815260206004820152602260248201527f796f75206d7573742061746c6561737420322065746865722070657220646f6e6044820152611d5d60f21b6064820152608401610174565b306000908152600160205260408120805483929061028e908490610341565b9091555050336000908152600160205260408120805483929061019c908490610311565b6000602082840312156102c457600080fd5b5035919050565b6000602082840312156102dd57600080fd5b81356001600160a01b03811681146102f457600080fd5b9392505050565b634e487b7160e01b600052601160045260246000fd5b80820180821115610324576103246102fb565b92915050565b8082028115828204841417610324576103246102fb565b81810381811115610324576103246102fb56fea2646970667358221220be30c3dc2a9b92f6b61b33097391fe05e4f0ffd104714687009379ecfaf6bc7364736f6c63430008110033",
    "sourcePath": "/home/user/Desktop/Blockchain_vending_machine/contracts/vendingMachine.sol",
    "compiler": {
        "name": "solc",
        "version": "0.8.17+commit.8df45f5f"
    },
    "functionHashes": {
        "addStock(uint256)": "3d650626",
        "donutBalances(address)": "9a020d8a",
        "getVendingMachineBalacnce()": "fa55d080",
        "owner()": "8da5cb5b",
        "purchaseDonut(uint256)": "7059312a"
    },
    "gasEstimates": {
        "creation": {
            "codeDepositCost": "181200",
            "executionCost": "46632",
            "totalCost": "227832"
        },
        "external": {
            "addStock(uint256)": "26712",
            "donutBalances(address)": "2528",
            "getVendingMachineBalacnce()": "2426",
            "owner()": "2348",
            "purchaseDonut(uint256)": "infinite"
        }
    }
}