{
  "contractName": "vendingMachine",
  "abi": [
    {
      "inputs": [],
      "stateMutability": "nonpayable",
      "type": "constructor"
    },
    {
      "inputs": [
        {
          "internalType": "address",
          "name": "",
          "type": "address"
        }
      ],
      "name": "donutBalances",
      "outputs": [
        {
          "internalType": "uint256",
          "name": "",
          "type": "uint256"
        }
      ],
      "stateMutability": "view",
      "type": "function",
      "constant": true
    },
    {
      "inputs": [],
      "name": "owner",
      "outputs": [
        {
          "internalType": "address",
          "name": "",
          "type": "address"
        }
      ],
      "stateMutability": "view",
      "type": "function",
      "constant": true
    },
    {
      "inputs": [],
      "name": "getVendingMachineBalacnce",
      "outputs": [
        {
          "internalType": "uint256",
          "name": "",
          "type": "uint256"
        }
      ],
      "stateMutability": "view",
      "type": "function",
      "constant": true
    },
    {
      "inputs": [
        {
          "internalType": "uint256",
          "name": "amount",
          "type": "uint256"
        }
      ],
      "name": "addStock",
      "outputs": [],
      "stateMutability": "nonpayable",
      "type": "function"
    },
    {
      "inputs": [
        {
          "internalType": "uint256",
          "name": "amount",
          "type": "uint256"
        }
      ],
      "name": "purchaseDonut",
      "outputs": [],
      "stateMutability": "payable",
      "type": "function",
      "payable": true
    }
  ],
  "bytecode": "0x608060405234801561001057600080fd5b50336000806101000a81548173ffffffffffffffffffffffffffffffffffffffff021916908373ffffffffffffffffffffffffffffffffffffffff1602179055506064600160003073ffffffffffffffffffffffffffffffffffffffff1673ffffffffffffffffffffffffffffffffffffffff168152602001908152602001600020819055506107e7806100a56000396000f3fe60806040526004361061004a5760003560e01c80633d6506261461004f5780637059312a146100785780638da5cb5b146100945780639a020d8a146100bf578063fa55d080146100fc575b600080fd5b34801561005b57600080fd5b5061007660048036038101906100719190610451565b610127565b005b610092600480360381019061008d9190610451565b61020e565b005b3480156100a057600080fd5b506100a9610393565b6040516100b691906104bf565b60405180910390f35b3480156100cb57600080fd5b506100e660048036038101906100e19190610506565b6103b7565b6040516100f39190610542565b60405180910390f35b34801561010857600080fd5b506101116103cf565b60405161011e9190610542565b60405180910390f35b60008054906101000a900473ffffffffffffffffffffffffffffffffffffffff1673ffffffffffffffffffffffffffffffffffffffff163373ffffffffffffffffffffffffffffffffffffffff16146101b5576040517f08c379a00000000000000000000000000000000000000000000000000000000081526004016101ac906105ba565b60405180910390fd5b80600160003073ffffffffffffffffffffffffffffffffffffffff1673ffffffffffffffffffffffffffffffffffffffff16815260200190815260200160002060008282546102049190610609565b9250508190555050565b80600160003073ffffffffffffffffffffffffffffffffffffffff1673ffffffffffffffffffffffffffffffffffffffff168152602001908152602001600020541015610290576040517f08c379a000000000000000000000000000000000000000000000000000000000815260040161028790610689565b60405180910390fd5b6512309ce54000816102a291906106a9565b3410156102e4576040517f08c379a00000000000000000000000000000000000000000000000000000000081526004016102db9061075d565b60405180910390fd5b80600160003073ffffffffffffffffffffffffffffffffffffffff1673ffffffffffffffffffffffffffffffffffffffff1681526020019081526020016000206000828254610333919061077d565b9250508190555080600160003373ffffffffffffffffffffffffffffffffffffffff1673ffffffffffffffffffffffffffffffffffffffff16815260200190815260200160002060008282546103899190610609565b9250508190555050565b60008054906101000a900473ffffffffffffffffffffffffffffffffffffffff1681565b60016020528060005260406000206000915090505481565b6000600160003073ffffffffffffffffffffffffffffffffffffffff1673ffffffffffffffffffffffffffffffffffffffff16815260200190815260200160002054905090565b600080fd5b6000819050919050565b61042e8161041b565b811461043957600080fd5b50565b60008135905061044b81610425565b92915050565b60006020828403121561046757610466610416565b5b60006104758482850161043c565b91505092915050565b600073ffffffffffffffffffffffffffffffffffffffff82169050919050565b60006104a98261047e565b9050919050565b6104b98161049e565b82525050565b60006020820190506104d460008301846104b0565b92915050565b6104e38161049e565b81146104ee57600080fd5b50565b600081359050610500816104da565b92915050565b60006020828403121561051c5761051b610416565b5b600061052a848285016104f1565b91505092915050565b61053c8161041b565b82525050565b60006020820190506105576000830184610533565b92915050565b600082825260208201905092915050565b7f6f6e6c79206f776e65722063616e206164642073746f636b0000000000000000600082015250565b60006105a460188361055d565b91506105af8261056e565b602082019050919050565b600060208201905081810360008301526105d381610597565b9050919050565b7f4e487b7100000000000000000000000000000000000000000000000000000000600052601160045260246000fd5b60006106148261041b565b915061061f8361041b565b9250828201905080821115610637576106366105da565b5b92915050565b7f6e6f7420656e6f75676820646f6e757420746f20707572636861736500000000600082015250565b6000610673601c8361055d565b915061067e8261063d565b602082019050919050565b600060208201905081810360008301526106a281610666565b9050919050565b60006106b48261041b565b91506106bf8361041b565b92508282026106cd8161041b565b915082820484148315176106e4576106e36105da565b5b5092915050565b7f796f75206d7573742061746c6561737420322065746865722070657220646f6e60008201527f7574000000000000000000000000000000000000000000000000000000000000602082015250565b600061074760228361055d565b9150610752826106eb565b604082019050919050565b600060208201905081810360008301526107768161073a565b9050919050565b60006107888261041b565b91506107938361041b565b92508282039050818111156107ab576107aa6105da565b5b9291505056fea2646970667358221220c80196c9d2c4ba15bd2dccb07c2fd2c6dbddf184617ef32058c5c2aa373cf17c64736f6c63430008110033",
  "immutableReferences": {},
  "source": "// SPDX-License-Identifier: GPL-3.0\npragma solidity >=0.7.0 <0.9.0;\n\ncontract vendingMachine{\n    address public owner;\n    mapping(address => uint) public donutBalances;\n\n    constructor(){\n        owner=msg.sender;\n        donutBalances[address(this)]=100;       // contract address\n    }\n    function getVendingMachineBalacnce() public view returns(uint){\n        return donutBalances[address(this)];\n    }\n    function addStock(uint amount)public{\n        // only owner can add \n        require(msg.sender==owner,\"only owner can add stock\");\n        donutBalances[address(this)]+=amount;\n    }\n    function purchaseDonut(uint amount)public payable{// payable is used to receive the ethers in the function\n        require(donutBalances[address(this)]>=amount,\"not enough donut to purchase\");// checking is sufficient amount of donut s present in machine\n        require(msg.value>=amount*0.00002 ether,\"you must atleast 2 ether per donut\");// using msg.value the ether received by the purchaser\n        donutBalances[address(this)]-=amount;\n        donutBalances[msg.sender]+=amount;// purchaser address using msg.sender to add donut to purchaser\n\n    }\n}\n",
  "sourcePath": "/home/user/Desktop/Blockchain_vending_machine/Backend_vending_machine/contracts/vendingMachine.sol",
  "compiler": {
    "name": "solc",
    "version": "0.8.17+commit.8df45f5f.Emscripten.clang"
  },
  "schemaVersion": "3.4.10",
  "updatedAt": "2022-10-13T10:30:13.601Z",
  "networkType": "ethereum",
  "devdoc": {
    "kind": "dev",
    "methods": {},
    "version": 1
  },
  "userdoc": {
    "kind": "user",
    "methods": {},
    "version": 1
  }
}