{
    "contractName": "NFTMarket",
    "abi": [
        {
            "inputs": [],
            "stateMutability": "nonpayable",
            "type": "constructor"
        },
        {
            "anonymous": false,
            "inputs": [
                {
                    "indexed": true,
                    "internalType": "address",
                    "name": "owner",
                    "type": "address"
                },
                {
                    "indexed": true,
                    "internalType": "address",
                    "name": "approved",
                    "type": "address"
                },
                {
                    "indexed": true,
                    "internalType": "uint256",
                    "name": "tokenId",
                    "type": "uint256"
                }
            ],
            "name": "Approval",
            "type": "event"
        },
        {
            "anonymous": false,
            "inputs": [
                {
                    "indexed": true,
                    "internalType": "address",
                    "name": "owner",
                    "type": "address"
                },
                {
                    "indexed": true,
                    "internalType": "address",
                    "name": "operator",
                    "type": "address"
                },
                {
                    "indexed": false,
                    "internalType": "bool",
                    "name": "approved",
                    "type": "bool"
                }
            ],
            "name": "ApprovalForAll",
            "type": "event"
        },
        {
            "anonymous": false,
            "inputs": [
                {
                    "indexed": true,
                    "internalType": "uint256",
                    "name": "tokenId",
                    "type": "uint256"
                },
                {
                    "indexed": false,
                    "internalType": "address",
                    "name": "seller",
                    "type": "address"
                },
                {
                    "indexed": false,
                    "internalType": "address",
                    "name": "owner",
                    "type": "address"
                },
                {
                    "indexed": false,
                    "internalType": "uint256",
                    "name": "price",
                    "type": "uint256"
                },
                {
                    "indexed": false,
                    "internalType": "bool",
                    "name": "sold",
                    "type": "bool"
                }
            ],
            "name": "MarketItemCreated",
            "type": "event"
        },
        {
            "anonymous": false,
            "inputs": [
                {
                    "indexed": true,
                    "internalType": "address",
                    "name": "from",
                    "type": "address"
                },
                {
                    "indexed": true,
                    "internalType": "address",
                    "name": "to",
                    "type": "address"
                },
                {
                    "indexed": true,
                    "internalType": "uint256",
                    "name": "tokenId",
                    "type": "uint256"
                }
            ],
            "name": "Transfer",
            "type": "event"
        },
        {
            "inputs": [
                {
                    "internalType": "address",
                    "name": "to",
                    "type": "address"
                },
                {
                    "internalType": "uint256",
                    "name": "tokenId",
                    "type": "uint256"
                }
            ],
            "name": "approve",
            "outputs": [],
            "stateMutability": "nonpayable",
            "type": "function"
        },
        {
            "inputs": [
                {
                    "internalType": "address",
                    "name": "owner",
                    "type": "address"
                }
            ],
            "name": "balanceOf",
            "outputs": [
                {
                    "internalType": "uint256",
                    "name": "",
                    "type": "uint256"
                }
            ],
            "stateMutability": "view",
            "type": "function"
        },
        {
            "inputs": [
                {
                    "internalType": "uint256",
                    "name": "tokenId",
                    "type": "uint256"
                }
            ],
            "name": "createMarketSale",
            "outputs": [],
            "stateMutability": "payable",
            "type": "function"
        },
        {
            "inputs": [
                {
                    "internalType": "string",
                    "name": "tokenURI",
                    "type": "string"
                },
                {
                    "internalType": "uint256",
                    "name": "price",
                    "type": "uint256"
                }
            ],
            "name": "createToken",
            "outputs": [
                {
                    "internalType": "uint256",
                    "name": "",
                    "type": "uint256"
                }
            ],
            "stateMutability": "payable",
            "type": "function"
        },
        {
            "inputs": [],
            "name": "fetchItemsListed",
            "outputs": [
                {
                    "components": [
                        {
                            "internalType": "uint256",
                            "name": "tokenId",
                            "type": "uint256"
                        },
                        {
                            "internalType": "address payable",
                            "name": "seller",
                            "type": "address"
                        },
                        {
                            "internalType": "address payable",
                            "name": "owner",
                            "type": "address"
                        },
                        {
                            "internalType": "uint256",
                            "name": "price",
                            "type": "uint256"
                        },
                        {
                            "internalType": "bool",
                            "name": "sold",
                            "type": "bool"
                        }
                    ],
                    "internalType": "struct NFTMarket.MarketItem[]",
                    "name": "",
                    "type": "tuple[]"
                }
            ],
            "stateMutability": "view",
            "type": "function"
        },
        {
            "inputs": [],
            "name": "fetchMarketItems",
            "outputs": [
                {
                    "components": [
                        {
                            "internalType": "uint256",
                            "name": "tokenId",
                            "type": "uint256"
                        },
                        {
                            "internalType": "address payable",
                            "name": "seller",
                            "type": "address"
                        },
                        {
                            "internalType": "address payable",
                            "name": "owner",
                            "type": "address"
                        },
                        {
                            "internalType": "uint256",
                            "name": "price",
                            "type": "uint256"
                        },
                        {
                            "internalType": "bool",
                            "name": "sold",
                            "type": "bool"
                        }
                    ],
                    "internalType": "struct NFTMarket.MarketItem[]",
                    "name": "",
                    "type": "tuple[]"
                }
            ],
            "stateMutability": "view",
            "type": "function"
        },
        {
            "inputs": [],
            "name": "fetchMyNfts",
            "outputs": [
                {
                    "components": [
                        {
                            "internalType": "uint256",
                            "name": "tokenId",
                            "type": "uint256"
                        },
                        {
                            "internalType": "address payable",
                            "name": "seller",
                            "type": "address"
                        },
                        {
                            "internalType": "address payable",
                            "name": "owner",
                            "type": "address"
                        },
                        {
                            "internalType": "uint256",
                            "name": "price",
                            "type": "uint256"
                        },
                        {
                            "internalType": "bool",
                            "name": "sold",
                            "type": "bool"
                        }
                    ],
                    "internalType": "struct NFTMarket.MarketItem[]",
                    "name": "",
                    "type": "tuple[]"
                }
            ],
            "stateMutability": "view",
            "type": "function"
        },
        {
            "inputs": [
                {
                    "internalType": "uint256",
                    "name": "tokenId",
                    "type": "uint256"
                }
            ],
            "name": "getApproved",
            "outputs": [
                {
                    "internalType": "address",
                    "name": "",
                    "type": "address"
                }
            ],
            "stateMutability": "view",
            "type": "function"
        },
        {
            "inputs": [],
            "name": "getListingPrice",
            "outputs": [
                {
                    "internalType": "uint256",
                    "name": "",
                    "type": "uint256"
                }
            ],
            "stateMutability": "view",
            "type": "function"
        },
        {
            "inputs": [
                {
                    "internalType": "address",
                    "name": "owner",
                    "type": "address"
                },
                {
                    "internalType": "address",
                    "name": "operator",
                    "type": "address"
                }
            ],
            "name": "isApprovedForAll",
            "outputs": [
                {
                    "internalType": "bool",
                    "name": "",
                    "type": "bool"
                }
            ],
            "stateMutability": "view",
            "type": "function"
        },
        {
            "inputs": [],
            "name": "name",
            "outputs": [
                {
                    "internalType": "string",
                    "name": "",
                    "type": "string"
                }
            ],
            "stateMutability": "view",
            "type": "function"
        },
        {
            "inputs": [
                {
                    "internalType": "uint256",
                    "name": "tokenId",
                    "type": "uint256"
                }
            ],
            "name": "ownerOf",
            "outputs": [
                {
                    "internalType": "address",
                    "name": "",
                    "type": "address"
                }
            ],
            "stateMutability": "view",
            "type": "function"
        },
        {
            "inputs": [
                {
                    "internalType": "uint256",
                    "name": "tokenId",
                    "type": "uint256"
                },
                {
                    "internalType": "uint256",
                    "name": "price",
                    "type": "uint256"
                }
            ],
            "name": "resellToken",
            "outputs": [],
            "stateMutability": "payable",
            "type": "function"
        },
        {
            "inputs": [
                {
                    "internalType": "address",
                    "name": "from",
                    "type": "address"
                },
                {
                    "internalType": "address",
                    "name": "to",
                    "type": "address"
                },
                {
                    "internalType": "uint256",
                    "name": "tokenId",
                    "type": "uint256"
                }
            ],
            "name": "safeTransferFrom",
            "outputs": [],
            "stateMutability": "nonpayable",
            "type": "function"
        },
        {
            "inputs": [
                {
                    "internalType": "address",
                    "name": "from",
                    "type": "address"
                },
                {
                    "internalType": "address",
                    "name": "to",
                    "type": "address"
                },
                {
                    "internalType": "uint256",
                    "name": "tokenId",
                    "type": "uint256"
                },
                {
                    "internalType": "bytes",
                    "name": "data",
                    "type": "bytes"
                }
            ],
            "name": "safeTransferFrom",
            "outputs": [],
            "stateMutability": "nonpayable",
            "type": "function"
        },
        {
            "inputs": [
                {
                    "internalType": "address",
                    "name": "operator",
                    "type": "address"
                },
                {
                    "internalType": "bool",
                    "name": "approved",
                    "type": "bool"
                }
            ],
            "name": "setApprovalForAll",
            "outputs": [],
            "stateMutability": "nonpayable",
            "type": "function"
        },
        {
            "inputs": [
                {
                    "internalType": "bytes4",
                    "name": "interfaceId",
                    "type": "bytes4"
                }
            ],
            "name": "supportsInterface",
            "outputs": [
                {
                    "internalType": "bool",
                    "name": "",
                    "type": "bool"
                }
            ],
            "stateMutability": "view",
            "type": "function"
        },
        {
            "inputs": [],
            "name": "symbol",
            "outputs": [
                {
                    "internalType": "string",
                    "name": "",
                    "type": "string"
                }
            ],
            "stateMutability": "view",
            "type": "function"
        },
        {
            "inputs": [
                {
                    "internalType": "uint256",
                    "name": "tokenId",
                    "type": "uint256"
                }
            ],
            "name": "tokenURI",
            "outputs": [
                {
                    "internalType": "string",
                    "name": "",
                    "type": "string"
                }
            ],
            "stateMutability": "view",
            "type": "function"
        },
        {
            "inputs": [
                {
                    "internalType": "address",
                    "name": "from",
                    "type": "address"
                },
                {
                    "internalType": "address",
                    "name": "to",
                    "type": "address"
                },
                {
                    "internalType": "uint256",
                    "name": "tokenId",
                    "type": "uint256"
                }
            ],
            "name": "transferFrom",
            "outputs": [],
            "stateMutability": "nonpayable",
            "type": "function"
        },
        {
            "inputs": [
                {
                    "internalType": "uint256",
                    "name": "_listingPrice",
                    "type": "uint256"
                }
            ],
            "name": "updateListingPrice",
            "outputs": [],
            "stateMutability": "payable",
            "type": "function"
        }
    ],
    "bytecode": "608060405265e35fa931a0006009553480156200001b57600080fd5b506040518060400160405280600a8152602001694e465420546f6b656e7360b01b8152506040518060400160405280600381526020016213951560ea1b81525081600090816200006c91906200013b565b5060016200007b82826200013b565b5050600a80546001600160a01b031916331790555062000207565b634e487b7160e01b600052604160045260246000fd5b600181811c90821680620000c157607f821691505b602082108103620000e257634e487b7160e01b600052602260045260246000fd5b50919050565b601f8211156200013657600081815260208120601f850160051c81016020861015620001115750805b601f850160051c820191505b8181101562000132578281556001016200011d565b5050505b505050565b81516001600160401b0381111562000157576200015762000096565b6200016f81620001688454620000ac565b84620000e8565b602080601f831160018114620001a757600084156200018e5750858301515b600019600386901b1c1916600185901b17855562000132565b600085815260208120601f198616915b82811015620001d857888601518255948401946001909101908401620001b7565b5085821015620001f75787850151600019600388901b60f8161c191681555b5050505050600190811b01905550565b61233c80620002176000396000f3fe60806040526004361061012a5760003560e01c80636352211e116100ab578063ae677aa31161006f578063ae677aa314610313578063b88d4fde14610326578063be9af53614610346578063c87b56dd14610359578063e219fc7514610379578063e985e9c51461038c57600080fd5b80636352211e1461028b57806370a08231146102ab57806372b3b620146102cb57806395d89b41146102de578063a22cb465146102f357600080fd5b8063128ae712116100f2578063128ae7121461020257806312e855851461021757806323b872dd1461023657806342842e0e1461025657806345f8fa801461027657600080fd5b806301ffc9a71461012f57806306fdde0314610164578063081812fc14610186578063095ea7b3146101be5780630f08efe0146101e0575b600080fd5b34801561013b57600080fd5b5061014f61014a366004611bfe565b6103d5565b60405190151581526020015b60405180910390f35b34801561017057600080fd5b50610179610427565b60405161015b9190611c6b565b34801561019257600080fd5b506101a66101a1366004611c7e565b6104b9565b6040516001600160a01b03909116815260200161015b565b3480156101ca57600080fd5b506101de6101d9366004611cb3565b6104e0565b005b3480156101ec57600080fd5b506101f56105fa565b60405161015b9190611cdd565b34801561020e57600080fd5b506101f5610791565b34801561022357600080fd5b506009545b60405190815260200161015b565b34801561024257600080fd5b506101de610251366004611d59565b610965565b34801561026257600080fd5b506101de610271366004611d59565b610996565b34801561028257600080fd5b506101f56109b1565b34801561029757600080fd5b506101a66102a6366004611c7e565b610b85565b3480156102b757600080fd5b506102286102c6366004611d95565b610be5565b6102286102d9366004611e3c565b610c6b565b3480156102ea57600080fd5b50610179610cad565b3480156102ff57600080fd5b506101de61030e366004611e95565b610cbc565b6101de610321366004611c7e565b610ccb565b34801561033257600080fd5b506101de610341366004611ed1565b610d43565b6101de610354366004611c7e565b610d7b565b34801561036557600080fd5b50610179610374366004611c7e565b610ee0565b6101de610387366004611f4d565b610ff0565b34801561039857600080fd5b5061014f6103a7366004611f6f565b6001600160a01b03918216600090815260056020908152604080832093909416825291909152205460ff1690565b60006001600160e01b031982166380ac58cd60e01b148061040657506001600160e01b03198216635b5e139f60e01b145b8061042157506301ffc9a760e01b6001600160e01b03198316145b92915050565b60606000805461043690611fa2565b80601f016020809104026020016040519081016040528092919081815260200182805461046290611fa2565b80156104af5780601f10610484576101008083540402835291602001916104af565b820191906000526020600020905b81548152906001019060200180831161049257829003601f168201915b5050505050905090565b60006104c4826110e8565b506000908152600460205260409020546001600160a01b031690565b60006104eb82610b85565b9050806001600160a01b0316836001600160a01b03160361055d5760405162461bcd60e51b815260206004820152602160248201527f4552433732313a20617070726f76616c20746f2063757272656e74206f776e656044820152603960f91b60648201526084015b60405180910390fd5b336001600160a01b0382161480610579575061057981336103a7565b6105eb5760405162461bcd60e51b815260206004820152603d60248201527f4552433732313a20617070726f76652063616c6c6572206973206e6f7420746f60448201527f6b656e206f776e6572206f7220617070726f76656420666f7220616c6c0000006064820152608401610554565b6105f5838361114a565b505050565b6060600061060760075490565b9050600061061460085490565b6007546106219190611ff2565b90506000808267ffffffffffffffff81111561063f5761063f611db0565b60405190808252806020026020018201604052801561069857816020015b6040805160a08101825260008082526020808301829052928201819052606082018190526080820152825260001990920191018161065d5790505b50905060005b848110156107885730600b60006106b6846001612005565b81526020810191909152604001600020600201546001600160a01b0316036107765760006106e5826001612005565b6000818152600b6020908152604091829020825160a0810184528154815260018201546001600160a01b039081169382019390935260028201549092169282019290925260038201546060820152600482015460ff16151560808201528551929350909185908790811061075b5761075b612018565b6020908102919091010152610771600186612005565b945050505b806107808161202e565b91505061069e565b50949350505050565b6060600061079e60075490565b905060008060005b838110156108005733600b60006107be846001612005565b81526020810191909152604001600020600201546001600160a01b0316036107ee576107eb600184612005565b92505b806107f88161202e565b9150506107a6565b5060008267ffffffffffffffff81111561081c5761081c611db0565b60405190808252806020026020018201604052801561087557816020015b6040805160a08101825260008082526020808301829052928201819052606082018190526080820152825260001990920191018161083a5790505b50905060005b848110156107885733600b6000610893846001612005565b81526020810191909152604001600020600201546001600160a01b0316036109535760006108c2826001612005565b6000818152600b6020908152604091829020825160a0810184528154815260018201546001600160a01b039081169382019390935260028201549092169282019290925260038201546060820152600482015460ff16151560808201528551929350909185908790811061093857610938612018565b602090810291909101015261094e600186612005565b945050505b8061095d8161202e565b91505061087b565b61096f33826111b8565b61098b5760405162461bcd60e51b815260040161055490612047565b6105f5838383611236565b6105f583838360405180602001604052806000815250610d43565b606060006109be60075490565b905060008060005b83811015610a205733600b60006109de846001612005565b81526020810191909152604001600020600101546001600160a01b031603610a0e57610a0b600184612005565b92505b80610a188161202e565b9150506109c6565b5060008267ffffffffffffffff811115610a3c57610a3c611db0565b604051908082528060200260200182016040528015610a9557816020015b6040805160a081018252600080825260208083018290529282018190526060820181905260808201528252600019909201910181610a5a5790505b50905060005b848110156107885733600b6000610ab3846001612005565b81526020810191909152604001600020600101546001600160a01b031603610b73576000610ae2826001612005565b6000818152600b6020908152604091829020825160a0810184528154815260018201546001600160a01b039081169382019390935260028201549092169282019290925260038201546060820152600482015460ff161515608082015285519293509091859087908110610b5857610b58612018565b6020908102919091010152610b6e600186612005565b945050505b80610b7d8161202e565b915050610a9b565b6000818152600260205260408120546001600160a01b0316806104215760405162461bcd60e51b8152602060048201526018602482015277115490cdcc8c4e881a5b9d985b1a59081d1bdad95b88125160421b6044820152606401610554565b60006001600160a01b038216610c4f5760405162461bcd60e51b815260206004820152602960248201527f4552433732313a2061646472657373207a65726f206973206e6f7420612076616044820152683634b21037bbb732b960b91b6064820152608401610554565b506001600160a01b031660009081526003602052604090205490565b6000610c7b600780546001019055565b6000610c8660075490565b9050610c9233826113a7565b610c9c8185611540565b610ca681846115d3565b9392505050565b60606001805461043690611fa2565b610cc7338383611729565b5050565b600a546001600160a01b03163314610d3e5760405162461bcd60e51b815260206004820152603060248201527f4f6e6c79206d61726b6574706c616365206f776e65722063616e20757064617460448201526f32903634b9ba34b73390383934b1b29760811b6064820152608401610554565b600955565b610d4d33836111b8565b610d695760405162461bcd60e51b815260040161055490612047565b610d75848484846117f7565b50505050565b6000818152600b6020526040902060038101546001909101546001600160a01b0316348214610e14576040805162461bcd60e51b81526020600482015260248101919091527f506c65617365207375626d6974207468652061736b696e67207072696365206960448201527f6e206f7264657220746f20636f6d706c657465207468652070757263686173656064820152608401610554565b6000838152600b602052604090206002810180546001600160a01b0319908116331790915560048201805460ff1916600190811790915590910180549091169055610e63600880546001019055565b610e6e303385611236565b600a546009546040516001600160a01b039092169181156108fc0291906000818181858888f19350505050158015610eaa573d6000803e3d6000fd5b506040516001600160a01b038216903480156108fc02916000818181858888f19350505050158015610d75573d6000803e3d6000fd5b6060610eeb826110e8565b60008281526006602052604081208054610f0490611fa2565b80601f0160208091040260200160405190810160405280929190818152602001828054610f3090611fa2565b8015610f7d5780601f10610f5257610100808354040283529160200191610f7d565b820191906000526020600020905b815481529060010190602001808311610f6057829003601f168201915b505050505090506000610f9b60408051602081019091526000815290565b90508051600003610fad575092915050565b815115610fdf578082604051602001610fc7929190612094565b60405160208183030381529060405292505050919050565b610fe88461182a565b949350505050565b6000828152600b60205260409020600201546001600160a01b0316331461106c5760405162461bcd60e51b815260206004820152602a60248201527f4f6e6c79206974656d206f776e65722063616e20706572666f726d20746869736044820152691037b832b930ba34b7b760b11b6064820152608401610554565b600954341461108d5760405162461bcd60e51b8152600401610554906120c3565b6000828152600b6020526040902060048101805460ff19169055600381018290556001810180546001600160a01b0319908116331790915560029091018054909116301790556110dd600861189d565b610cc7333084611236565b6000818152600260205260409020546001600160a01b03166111475760405162461bcd60e51b8152602060048201526018602482015277115490cdcc8c4e881a5b9d985b1a59081d1bdad95b88125160421b6044820152606401610554565b50565b600081815260046020526040902080546001600160a01b0319166001600160a01b038416908117909155819061117f82610b85565b6001600160a01b03167f8c5be1e5ebec7d5bd14f71427d1e84f3dd0314c0f7b2291e5b200ac8c7c3b92560405160405180910390a45050565b6000806111c483610b85565b9050806001600160a01b0316846001600160a01b0316148061120b57506001600160a01b0380821660009081526005602090815260408083209388168352929052205460ff165b80610fe85750836001600160a01b0316611224846104b9565b6001600160a01b031614949350505050565b826001600160a01b031661124982610b85565b6001600160a01b03161461126f5760405162461bcd60e51b815260040161055490612107565b6001600160a01b0382166112d15760405162461bcd60e51b8152602060048201526024808201527f4552433732313a207472616e7366657220746f20746865207a65726f206164646044820152637265737360e01b6064820152608401610554565b6112de83838360016118f4565b826001600160a01b03166112f182610b85565b6001600160a01b0316146113175760405162461bcd60e51b815260040161055490612107565b600081815260046020908152604080832080546001600160a01b03199081169091556001600160a01b0387811680865260038552838620805460001901905590871680865283862080546001019055868652600290945282852080549092168417909155905184937fddf252ad1be2c89b69c2b068fc378daa952ba7f163c4a11628f55a4df523b3ef91a4505050565b6001600160a01b0382166113fd5760405162461bcd60e51b815260206004820181905260248201527f4552433732313a206d696e7420746f20746865207a65726f20616464726573736044820152606401610554565b6000818152600260205260409020546001600160a01b0316156114625760405162461bcd60e51b815260206004820152601c60248201527f4552433732313a20746f6b656e20616c7265616479206d696e746564000000006044820152606401610554565b6114706000838360016118f4565b6000818152600260205260409020546001600160a01b0316156114d55760405162461bcd60e51b815260206004820152601c60248201527f4552433732313a20746f6b656e20616c7265616479206d696e746564000000006044820152606401610554565b6001600160a01b038216600081815260036020908152604080832080546001019055848352600290915280822080546001600160a01b0319168417905551839291907fddf252ad1be2c89b69c2b068fc378daa952ba7f163c4a11628f55a4df523b3ef908290a45050565b6000828152600260205260409020546001600160a01b03166115bb5760405162461bcd60e51b815260206004820152602e60248201527f45524337323155524953746f726167653a2055524920736574206f66206e6f6e60448201526d32bc34b9ba32b73a103a37b5b2b760911b6064820152608401610554565b60008281526006602052604090206105f5828261219a565b600081116116235760405162461bcd60e51b815260206004820152601c60248201527f5072696365206d757374206265206174206c65617374203120776569000000006044820152606401610554565b60095434146116445760405162461bcd60e51b8152600401610554906120c3565b6040805160a08101825283815233602080830182815230848601818152606086018881526000608088018181528b8252600b909652979097209551865591516001860180546001600160a01b03199081166001600160a01b0393841617909155925160028701805490941691161790915593516003840155516004909201805460ff1916921515929092179091556116dc9184611236565b604080513381523060208201529081018290526000606082015282907fb640004f1d14576d0c209e240cad0410e0d8c0c33a09375861fbadae2588a98d9060800160405180910390a25050565b816001600160a01b0316836001600160a01b03160361178a5760405162461bcd60e51b815260206004820152601960248201527f4552433732313a20617070726f766520746f2063616c6c6572000000000000006044820152606401610554565b6001600160a01b03838116600081815260056020908152604080832094871680845294825291829020805460ff191686151590811790915591519182527f17307eab39ab6107e8899845ad3d59bd9653f200f220920489ca2b5937696c31910160405180910390a3505050565b611802848484611236565b61180e8484848461197c565b610d755760405162461bcd60e51b81526004016105549061225a565b6060611835826110e8565b600061184c60408051602081019091526000815290565b9050600081511161186c5760405180602001604052806000815250610ca6565b8061187684611a7d565b604051602001611887929190612094565b6040516020818303038152906040529392505050565b8054806118ec5760405162461bcd60e51b815260206004820152601b60248201527f436f756e7465723a2064656372656d656e74206f766572666c6f7700000000006044820152606401610554565b600019019055565b6001811115610d75576001600160a01b0384161561193a576001600160a01b03841660009081526003602052604081208054839290611934908490611ff2565b90915550505b6001600160a01b03831615610d75576001600160a01b03831660009081526003602052604081208054839290611971908490612005565b909155505050505050565b60006001600160a01b0384163b15611a7257604051630a85bd0160e11b81526001600160a01b0385169063150b7a02906119c09033908990889088906004016122ac565b6020604051808303816000875af19250505080156119fb575060408051601f3d908101601f191682019092526119f8918101906122e9565b60015b611a58573d808015611a29576040519150601f19603f3d011682016040523d82523d6000602084013e611a2e565b606091505b508051600003611a505760405162461bcd60e51b81526004016105549061225a565b805181602001fd5b6001600160e01b031916630a85bd0160e11b149050610fe8565b506001949350505050565b60606000611a8a83611b10565b600101905060008167ffffffffffffffff811115611aaa57611aaa611db0565b6040519080825280601f01601f191660200182016040528015611ad4576020820181803683370190505b5090508181016020015b600019016f181899199a1a9b1b9c1cb0b131b232b360811b600a86061a8153600a8504945084611ade57509392505050565b60008072184f03e93ff9f4daa797ed6e38ed64bf6a1f0160401b8310611b4f5772184f03e93ff9f4daa797ed6e38ed64bf6a1f0160401b830492506040015b6d04ee2d6d415b85acef81000000008310611b7b576d04ee2d6d415b85acef8100000000830492506020015b662386f26fc100008310611b9957662386f26fc10000830492506010015b6305f5e1008310611bb1576305f5e100830492506008015b6127108310611bc557612710830492506004015b60648310611bd7576064830492506002015b600a83106104215760010192915050565b6001600160e01b03198116811461114757600080fd5b600060208284031215611c1057600080fd5b8135610ca681611be8565b60005b83811015611c36578181015183820152602001611c1e565b50506000910152565b60008151808452611c57816020860160208601611c1b565b601f01601f19169290920160200192915050565b602081526000610ca66020830184611c3f565b600060208284031215611c9057600080fd5b5035919050565b80356001600160a01b0381168114611cae57600080fd5b919050565b60008060408385031215611cc657600080fd5b611ccf83611c97565b946020939093013593505050565b602080825282518282018190526000919060409081850190868401855b82811015611d4c57815180518552868101516001600160a01b03908116888701528682015116868601526060808201519086015260809081015115159085015260a09093019290850190600101611cfa565b5091979650505050505050565b600080600060608486031215611d6e57600080fd5b611d7784611c97565b9250611d8560208501611c97565b9150604084013590509250925092565b600060208284031215611da757600080fd5b610ca682611c97565b634e487b7160e01b600052604160045260246000fd5b600067ffffffffffffffff80841115611de157611de1611db0565b604051601f8501601f19908116603f01168101908282118183101715611e0957611e09611db0565b81604052809350858152868686011115611e2257600080fd5b858560208301376000602087830101525050509392505050565b60008060408385031215611e4f57600080fd5b823567ffffffffffffffff811115611e6657600080fd5b8301601f81018513611e7757600080fd5b611e8685823560208401611dc6565b95602094909401359450505050565b60008060408385031215611ea857600080fd5b611eb183611c97565b915060208301358015158114611ec657600080fd5b809150509250929050565b60008060008060808587031215611ee757600080fd5b611ef085611c97565b9350611efe60208601611c97565b925060408501359150606085013567ffffffffffffffff811115611f2157600080fd5b8501601f81018713611f3257600080fd5b611f4187823560208401611dc6565b91505092959194509250565b60008060408385031215611f6057600080fd5b50508035926020909101359150565b60008060408385031215611f8257600080fd5b611f8b83611c97565b9150611f9960208401611c97565b90509250929050565b600181811c90821680611fb657607f821691505b602082108103611fd657634e487b7160e01b600052602260045260246000fd5b50919050565b634e487b7160e01b600052601160045260246000fd5b8181038181111561042157610421611fdc565b8082018082111561042157610421611fdc565b634e487b7160e01b600052603260045260246000fd5b60006001820161204057612040611fdc565b5060010190565b6020808252602d908201527f4552433732313a2063616c6c6572206973206e6f7420746f6b656e206f776e6560408201526c1c881bdc88185c1c1c9bdd9959609a1b606082015260800190565b600083516120a6818460208801611c1b565b8351908301906120ba818360208801611c1b565b01949350505050565b60208082526024908201527f5072696365206d75737420626520657175616c20746f206c697374696e6720706040820152637269636560e01b606082015260800190565b60208082526025908201527f4552433732313a207472616e736665722066726f6d20696e636f72726563742060408201526437bbb732b960d91b606082015260800190565b601f8211156105f557600081815260208120601f850160051c810160208610156121735750805b601f850160051c820191505b818110156121925782815560010161217f565b505050505050565b815167ffffffffffffffff8111156121b4576121b4611db0565b6121c8816121c28454611fa2565b8461214c565b602080601f8311600181146121fd57600084156121e55750858301515b600019600386901b1c1916600185901b178555612192565b600085815260208120601f198616915b8281101561222c5788860151825594840194600190910190840161220d565b508582101561224a5787850151600019600388901b60f8161c191681555b5050505050600190811b01905550565b60208082526032908201527f4552433732313a207472616e7366657220746f206e6f6e20455243373231526560408201527131b2b4bb32b91034b6b83632b6b2b73a32b960711b606082015260800190565b6001600160a01b03858116825284166020820152604081018390526080606082018190526000906122df90830184611c3f565b9695505050505050565b6000602082840312156122fb57600080fd5b8151610ca681611be856fea26469706673582212201c9e4ec33a5dfbad10bc946c96464f9bce1efd2515bb784f55c4cf1a217d629064736f6c63430008110033",
    "sourcePath": "/home/user/Desktop/nft-marketplace/blockchain/contract/nft-marketplace.sol",
    "compiler": {
        "name": "solc",
        "version": "0.8.17+commit.8df45f5f"
    },
    "functionHashes": {
        "approve(address,uint256)": "095ea7b3",
        "balanceOf(address)": "70a08231",
        "createMarketSale(uint256)": "be9af536",
        "createToken(string,uint256)": "72b3b620",
        "fetchItemsListed()": "45f8fa80",
        "fetchMarketItems()": "0f08efe0",
        "fetchMyNfts()": "128ae712",
        "getApproved(uint256)": "081812fc",
        "getListingPrice()": "12e85585",
        "isApprovedForAll(address,address)": "e985e9c5",
        "name()": "06fdde03",
        "ownerOf(uint256)": "6352211e",
        "resellToken(uint256,uint256)": "e219fc75",
        "safeTransferFrom(address,address,uint256)": "42842e0e",
        "safeTransferFrom(address,address,uint256,bytes)": "b88d4fde",
        "setApprovalForAll(address,bool)": "a22cb465",
        "supportsInterface(bytes4)": "01ffc9a7",
        "symbol()": "95d89b41",
        "tokenURI(uint256)": "c87b56dd",
        "transferFrom(address,address,uint256)": "23b872dd",
        "updateListingPrice(uint256)": "ae677aa3"
    },
    "gasEstimates": {
        "creation": {
            "codeDepositCost": "1804000",
            "executionCost": "infinite",
            "totalCost": "infinite"
        },
        "external": {
            "approve(address,uint256)": "infinite",
            "balanceOf(address)": "2634",
            "createMarketSale(uint256)": "infinite",
            "createToken(string,uint256)": "infinite",
            "fetchItemsListed()": "infinite",
            "fetchMarketItems()": "infinite",
            "fetchMyNfts()": "infinite",
            "getApproved(uint256)": "4792",
            "getListingPrice()": "2326",
            "isApprovedForAll(address,address)": "infinite",
            "name()": "infinite",
            "ownerOf(uint256)": "2561",
            "resellToken(uint256,uint256)": "infinite",
            "safeTransferFrom(address,address,uint256)": "infinite",
            "safeTransferFrom(address,address,uint256,bytes)": "infinite",
            "setApprovalForAll(address,bool)": "26794",
            "supportsInterface(bytes4)": "534",
            "symbol()": "infinite",
            "tokenURI(uint256)": "infinite",
            "transferFrom(address,address,uint256)": "infinite",
            "updateListingPrice(uint256)": "24462"
        },
        "internal": {
            "createMarketItem(uint256,uint256)": "infinite"
        }
    }
}